{
  "address": "0xdD72122b6D1fbbeF596D9acCe22Bb176210Ac0f7",
  "abi": [
    {
      "inputs": [
        {
          "internalType": "address",
          "name": "_tokenAddress",
          "type": "address"
        }
      ],
      "name": "createExchange",
      "outputs": [
        {
          "internalType": "address",
          "name": "",
          "type": "address"
        }
      ],
      "stateMutability": "nonpayable",
      "type": "function"
    },
    {
      "inputs": [
        {
          "internalType": "address",
          "name": "_tokenAddress",
          "type": "address"
        }
      ],
      "name": "getExchange",
      "outputs": [
        {
          "internalType": "address",
          "name": "",
          "type": "address"
        }
      ],
      "stateMutability": "view",
      "type": "function"
    },
    {
      "inputs": [
        {
          "internalType": "address",
          "name": "",
          "type": "address"
        }
      ],
      "name": "tokenToExchange",
      "outputs": [
        {
          "internalType": "address",
          "name": "",
          "type": "address"
        }
      ],
      "stateMutability": "view",
      "type": "function"
    }
  ],
  "transactionHash": "0xf826766baac64658ad02cbb59e18acce059ba4f568eecfa1d3d095109f436322",
  "args": [],
  "numDeployments": 1,
  "solcInputHash": "b646b9e57c1bd795730c54f4733dc422",
  "bytecode": "0x608060405234801561001057600080fd5b50611b78806100206000396000f3fe608060405234801561001057600080fd5b50600436106100415760003560e01c806306f2bf62146100465780631648f38e14610088578063c3c49a631461009b575b600080fd5b6100726100543660046101f4565b6001600160a01b039081166000908152602081905260409020541690565b60405161007f9190610224565b60405180910390f35b6100726100963660046101f4565b6100c4565b6100726100a93660046101f4565b6000602081905290815260409020546001600160a01b031681565b60006001600160a01b0382166101195760405162461bcd60e51b8152602060048201526015602482015274696e76616c696420746f6b656e206164647265737360581b60448201526064015b60405180910390fd5b6001600160a01b03828116600090815260208190526040902054161561017b5760405162461bcd60e51b815260206004820152601760248201527665786368616e676520616c72656164792065786973747360481b6044820152606401610110565b60008260405161018a906101e7565b6101949190610224565b604051809103906000f0801580156101b0573d6000803e3d6000fd5b506001600160a01b03938416600090815260208190526040902080546001600160a01b031916948216949094179093555090919050565b61190a8061023983390190565b60006020828403121561020657600080fd5b81356001600160a01b038116811461021d57600080fd5b9392505050565b6001600160a01b039190911681526020019056fe60806040523480156200001157600080fd5b506040516200190a3803806200190a8339810160408190526200003491620001cf565b604051806040016040528060048152602001630537761760e41b815250604051806040016040528060048152602001630535741560e41b81525081600390805190602001906200008692919062000129565b5080516200009c90600490602084019062000129565b5050506001600160a01b038116620000fa5760405162461bcd60e51b815260206004820152601560248201527f696e76616c696420746f6b656e20616464726573730000000000000000000000604482015260640160405180910390fd5b600580546001600160a01b039092166001600160a01b031992831617905560068054909116331790556200023e565b828054620001379062000201565b90600052602060002090601f0160209004810192826200015b5760008555620001a6565b82601f106200017657805160ff1916838001178555620001a6565b82800160010185558215620001a6579182015b82811115620001a657825182559160200191906001019062000189565b50620001b4929150620001b8565b5090565b5b80821115620001b45760008155600101620001b9565b600060208284031215620001e257600080fd5b81516001600160a01b0381168114620001fa57600080fd5b9392505050565b600181811c908216806200021657607f821691505b602082108114156200023857634e487b7160e01b600052602260045260246000fd5b50919050565b6116bc806200024e6000396000f3fe6080604052600436106101055760003560e01c806306fdde031461010a578063095ea7b31461013557806318160ddd1461016557806323b872dd14610184578063313ce567146101a4578063389d9a40146101c057806339509351146101d557806351c6590a146101f557806359bf5d391461020857806370a082311461021d5780638fc7a25d1461025357806395d89b4114610273578063966dae0e146102885780639c8f9f23146102b55780639d76ea58146102ea578063a457c2d71461030a578063a9059cbb1461032a578063c2507ac11461034a578063dd62ed3e1461036a578063e0486c8a1461038a578063f7a7e324146103aa578063f979dcd7146103ca575b600080fd5b34801561011657600080fd5b5061011f6103dd565b60405161012c9190611302565b60405180910390f35b34801561014157600080fd5b5061015561015036600461136c565b61046f565b604051901515815260200161012c565b34801561017157600080fd5b506002545b60405190815260200161012c565b34801561019057600080fd5b5061015561019f366004611398565b610487565b3480156101b057600080fd5b506040516012815260200161012c565b6101d36101ce3660046113d9565b6104ab565b005b3480156101e157600080fd5b506101556101f036600461136c565b6104b9565b610176610203366004611409565b6104db565b34801561021457600080fd5b506101766106a9565b34801561022957600080fd5b50610176610238366004611422565b6001600160a01b031660009081526020819052604090205490565b34801561025f57600080fd5b5061017661026e366004611409565b610720565b34801561027f57600080fd5b5061011f610781565b34801561029457600080fd5b506006546102a8906001600160a01b031681565b60405161012c919061143f565b3480156102c157600080fd5b506102d56102d0366004611409565b610790565b6040805192835260208301919091520161012c565b3480156102f657600080fd5b506005546102a8906001600160a01b031681565b34801561031657600080fd5b5061015561032536600461136c565b6108d7565b34801561033657600080fd5b5061015561034536600461136c565b610952565b34801561035657600080fd5b50610176610365366004611409565b610960565b34801561037657600080fd5b50610176610385366004611453565b6109bf565b34801561039657600080fd5b506101d36103a5366004611481565b6109ea565b3480156103b657600080fd5b506101d36103c53660046114a3565b610ad1565b6101d36103d8366004611409565b610caa565b6060600380546103ec906114dc565b80601f0160208091040260200160405190810160405280929190818152602001828054610418906114dc565b80156104655780601f1061043a57610100808354040283529160200191610465565b820191906000526020600020905b81548152906001019060200180831161044857829003601f168201915b5050505050905090565b60003361047d818585610cb7565b5060019392505050565b600033610495858285610ddc565b6104a0858585610e56565b506001949350505050565b6104b58282610fe8565b5050565b60003361047d8185856104cc83836109bf565b6104d6919061152d565b610cb7565b60006104e56106a9565b610575576005546040516323b872dd60e01b81526001600160a01b039091169081906323b872dd9061051f90339030908890600401611545565b6020604051808303816000875af115801561053e573d6000803e3d6000fd5b505050506040513d601f19601f820116820180604052508101906105629190611569565b504761056e33826110a1565b9392505050565b6000610581344761158b565b9050600061058d6106a9565b905060008261059c83346115a2565b6105a691906115c1565b9050808510156105f95760405162461bcd60e51b81526020600482015260196024820152781a5b9cdd59999a58da595b9d081d1bdad95b88185b5bdd5b9d603a1b60448201526064015b60405180910390fd5b6005546040516323b872dd60e01b81526001600160a01b039091169081906323b872dd9061062f90339030908790600401611545565b6020604051808303816000875af115801561064e573d6000803e3d6000fd5b505050506040513d601f19601f820116820180604052508101906106729190611569565b5060008461067f60025490565b61068990346115a2565b61069391906115c1565b905061069f33826110a1565b9695505050505050565b6005546040516370a0823160e01b81526000916001600160a01b0316906370a08231906106da90309060040161143f565b602060405180830381865afa1580156106f7573d6000803e3d6000fd5b505050506040513d601f19601f8201168201806040525081019061071b91906115e3565b905090565b600080821161076a5760405162461bcd60e51b81526020600482015260166024820152751d1bdad95b94dbdb19081a5cc81d1bdbc81cdb585b1b60521b60448201526064016105f0565b60006107746106a9565b905061056e83824761114e565b6060600480546103ec906114dc565b600080600083116107d45760405162461bcd60e51b815260206004820152600e60248201526d1a5b9d985b1a5908185b5bdd5b9d60921b60448201526064016105f0565b60006107df60025490565b6107e985476115a2565b6107f391906115c1565b9050600061080060025490565b856108096106a9565b61081391906115a2565b61081d91906115c1565b905061082933866111ea565b604051339083156108fc029084906000818181858888f19350505050158015610856573d6000803e3d6000fd5b5060055460405163a9059cbb60e01b81526001600160a01b039091169063a9059cbb9061088990339085906004016115fc565b6020604051808303816000875af11580156108a8573d6000803e3d6000fd5b505050506040513d601f19601f820116820180604052508101906108cc9190611569565b509094909350915050565b600033816108e582866109bf565b9050838110156109455760405162461bcd60e51b815260206004820152602560248201527f45524332303a2064656372656173656420616c6c6f77616e63652062656c6f77604482015264207a65726f60d81b60648201526084016105f0565b6104a08286868403610cb7565b60003361047d818585610e56565b60008082116109a85760405162461bcd60e51b8152602060048201526014602482015273195d1a14dbdb19081a5cc81d1bdbc81cdb585b1b60621b60448201526064016105f0565b60006109b26106a9565b905061056e83478361114e565b6001600160a01b03918216600090815260016020908152604080832093909416825291909152205490565b60006109f46106a9565b90506000610a0384834761114e565b905082811015610a255760405162461bcd60e51b81526004016105f090611615565b6005546040516323b872dd60e01b81526001600160a01b03909116906323b872dd90610a5990339030908990600401611545565b6020604051808303816000875af1158015610a78573d6000803e3d6000fd5b505050506040513d601f19601f82011682018060405250810190610a9c9190611569565b50604051339082156108fc029083906000818181858888f19350505050158015610aca573d6000803e3d6000fd5b5050505050565b6006546040516303795fb160e11b81526000916001600160a01b0316906306f2bf6290610b0290859060040161143f565b6020604051808303816000875af1158015610b21573d6000803e3d6000fd5b505050506040513d601f19601f82011682018060405250810190610b459190611649565b90506001600160a01b0381163014801590610b6857506001600160a01b03811615155b610baf5760405162461bcd60e51b8152602060048201526018602482015277696e76616c69642065786368616e6765206164647265737360401b60448201526064016105f0565b6000610bb96106a9565b90506000610bc886834761114e565b6005546040516323b872dd60e01b81529192506001600160a01b0316906323b872dd90610bfd90339030908b90600401611545565b6020604051808303816000875af1158015610c1c573d6000803e3d6000fd5b505050506040513d601f19601f82011682018060405250810190610c409190611569565b5060405162e2766960e61b8152600481018690523360248201526001600160a01b0384169063389d9a409083906044016000604051808303818588803b158015610c8957600080fd5b505af1158015610c9d573d6000803e3d6000fd5b5050505050505050505050565b610cb48133610fe8565b50565b6001600160a01b038316610d195760405162461bcd60e51b8152602060048201526024808201527f45524332303a20617070726f76652066726f6d20746865207a65726f206164646044820152637265737360e01b60648201526084016105f0565b6001600160a01b038216610d7a5760405162461bcd60e51b815260206004820152602260248201527f45524332303a20617070726f766520746f20746865207a65726f206164647265604482015261737360f01b60648201526084016105f0565b6001600160a01b0383811660008181526001602090815260408083209487168084529482529182902085905590518481527f8c5be1e5ebec7d5bd14f71427d1e84f3dd0314c0f7b2291e5b200ac8c7c3b92591015b60405180910390a3505050565b6000610de884846109bf565b90506000198114610e505781811015610e435760405162461bcd60e51b815260206004820152601d60248201527f45524332303a20696e73756666696369656e7420616c6c6f77616e636500000060448201526064016105f0565b610e508484848403610cb7565b50505050565b6001600160a01b038316610eba5760405162461bcd60e51b815260206004820152602560248201527f45524332303a207472616e736665722066726f6d20746865207a65726f206164604482015264647265737360d81b60648201526084016105f0565b6001600160a01b038216610f1c5760405162461bcd60e51b815260206004820152602360248201527f45524332303a207472616e7366657220746f20746865207a65726f206164647260448201526265737360e81b60648201526084016105f0565b6001600160a01b03831660009081526020819052604090205481811015610f945760405162461bcd60e51b815260206004820152602660248201527f45524332303a207472616e7366657220616d6f756e7420657863656564732062604482015265616c616e636560d01b60648201526084016105f0565b6001600160a01b0384811660008181526020818152604080832087870390559387168083529184902080548701905592518581529092600080516020611667833981519152910160405180910390a3610e50565b6000610ff26106a9565b9050600061100a34611004814761158b565b8461114e565b90508381101561102c5760405162461bcd60e51b81526004016105f090611615565b60055460405163a9059cbb60e01b81526001600160a01b039091169063a9059cbb9061105e90869085906004016115fc565b6020604051808303816000875af115801561107d573d6000803e3d6000fd5b505050506040513d601f19601f82011682018060405250810190610aca9190611569565b6001600160a01b0382166110f75760405162461bcd60e51b815260206004820152601f60248201527f45524332303a206d696e7420746f20746865207a65726f20616464726573730060448201526064016105f0565b8060026000828254611109919061152d565b90915550506001600160a01b03821660008181526020818152604080832080548601905551848152600080516020611667833981519152910160405180910390a35050565b6000808311801561115f5750600082115b61119e5760405162461bcd60e51b815260206004820152601060248201526f696e76616c696420726573657276657360801b60448201526064016105f0565b60006111ab8560636115a2565b905060006111b984836115a2565b90506000826111c98760646115a2565b6111d3919061152d565b90506111df81836115c1565b979650505050505050565b6001600160a01b03821661124a5760405162461bcd60e51b815260206004820152602160248201527f45524332303a206275726e2066726f6d20746865207a65726f206164647265736044820152607360f81b60648201526084016105f0565b6001600160a01b038216600090815260208190526040902054818110156112be5760405162461bcd60e51b815260206004820152602260248201527f45524332303a206275726e20616d6f756e7420657863656564732062616c616e604482015261636560f01b60648201526084016105f0565b6001600160a01b0383166000818152602081815260408083208686039055600280548790039055518581529192916000805160206116678339815191529101610dcf565b600060208083528351808285015260005b8181101561132f57858101830151858201604001528201611313565b81811115611341576000604083870101525b50601f01601f1916929092016040019392505050565b6001600160a01b0381168114610cb457600080fd5b6000806040838503121561137f57600080fd5b823561138a81611357565b946020939093013593505050565b6000806000606084860312156113ad57600080fd5b83356113b881611357565b925060208401356113c881611357565b929592945050506040919091013590565b600080604083850312156113ec57600080fd5b8235915060208301356113fe81611357565b809150509250929050565b60006020828403121561141b57600080fd5b5035919050565b60006020828403121561143457600080fd5b813561056e81611357565b6001600160a01b0391909116815260200190565b6000806040838503121561146657600080fd5b823561147181611357565b915060208301356113fe81611357565b6000806040838503121561149457600080fd5b50508035926020909101359150565b6000806000606084860312156114b857600080fd5b833592506020840135915060408401356114d181611357565b809150509250925092565b600181811c908216806114f057607f821691505b6020821081141561151157634e487b7160e01b600052602260045260246000fd5b50919050565b634e487b7160e01b600052601160045260246000fd5b6000821982111561154057611540611517565b500190565b6001600160a01b039384168152919092166020820152604081019190915260600190565b60006020828403121561157b57600080fd5b8151801515811461056e57600080fd5b60008282101561159d5761159d611517565b500390565b60008160001904831182151516156115bc576115bc611517565b500290565b6000826115de57634e487b7160e01b600052601260045260246000fd5b500490565b6000602082840312156115f557600080fd5b5051919050565b6001600160a01b03929092168252602082015260400190565b6020808252601a90820152791a5b9cdd59999a58da595b9d081bdd5d1c1d5d08185b5bdd5b9d60321b604082015260600190565b60006020828403121561165b57600080fd5b815161056e8161135756feddf252ad1be2c89b69c2b068fc378daa952ba7f163c4a11628f55a4df523b3efa26469706673582212204948f19059781cc6602d9c8176be6efbe9e510f71374438cb26c031d94f4f7a564736f6c634300080c0033a264697066735822122002e2719191e6fb28c351f0c7769d53528a46cd51cf0bdbe647731473dfa00eff64736f6c634300080c0033",
  "devdoc": {
    "kind": "dev",
    "methods": {},
    "version": 1
  },
  "userdoc": {
    "kind": "user",
    "methods": {},
    "version": 1
  },
  "storageLayout": {
    "storage": [
      {
        "astId": 1619,
        "contract": "contracts/ExchangeFactory.sol:ExchangeFactory",
        "label": "tokenToExchange",
        "offset": 0,
        "slot": "0",
        "type": "t_mapping(t_address,t_address)"
      }
    ],
    "types": {
      "t_address": {
        "encoding": "inplace",
        "label": "address",
        "numberOfBytes": "20"
      },
      "t_mapping(t_address,t_address)": {
        "encoding": "mapping",
        "key": "t_address",
        "label": "mapping(address => address)",
        "numberOfBytes": "32",
        "value": "t_address"
      }
    }
  }
}