{
  "address": "0x3A8bB33E60ca28fA6b27F69A763a5978259f75E2",
  "abi": [
    {
      "inputs": [
        {
          "internalType": "address",
          "name": "vrfCoordinatorV2",
          "type": "address"
        },
        {
          "internalType": "uint64",
          "name": "subscriptionId",
          "type": "uint64"
        },
        {
          "internalType": "bytes32",
          "name": "gasLane",
          "type": "bytes32"
        },
        {
          "internalType": "uint32",
          "name": "callbackGasLimit",
          "type": "uint32"
        },
        {
          "internalType": "address",
          "name": "exchangeFactoryAddress",
          "type": "address"
        }
      ],
      "stateMutability": "nonpayable",
      "type": "constructor"
    },
    {
      "inputs": [
        {
          "internalType": "address",
          "name": "have",
          "type": "address"
        },
        {
          "internalType": "address",
          "name": "want",
          "type": "address"
        }
      ],
      "name": "OnlyCoordinatorCanFulfill",
      "type": "error"
    },
    {
      "inputs": [
        {
          "internalType": "bytes",
          "name": "",
          "type": "bytes"
        }
      ],
      "name": "checkUpkeep",
      "outputs": [
        {
          "internalType": "bool",
          "name": "upkeepNeeded",
          "type": "bool"
        },
        {
          "internalType": "bytes",
          "name": "performData",
          "type": "bytes"
        }
      ],
      "stateMutability": "view",
      "type": "function"
    },
    {
      "inputs": [
        {
          "internalType": "string",
          "name": "baseUri",
          "type": "string"
        },
        {
          "internalType": "uint256",
          "name": "minMembers",
          "type": "uint256"
        },
        {
          "internalType": "uint256",
          "name": "requestTime",
          "type": "uint256"
        },
        {
          "internalType": "uint256",
          "name": "validity",
          "type": "uint256"
        },
        {
          "internalType": "uint256",
          "name": "claimTime",
          "type": "uint256"
        },
        {
          "internalType": "uint256",
          "name": "judgingTime",
          "type": "uint256"
        },
        {
          "internalType": "uint256",
          "name": "judgesLength",
          "type": "uint256"
        },
        {
          "internalType": "uint256",
          "name": "amount",
          "type": "uint256"
        },
        {
          "internalType": "uint256",
          "name": "percentDivideIntoJudges",
          "type": "uint256"
        },
        {
          "internalType": "bool",
          "name": "useLiquidityPool",
          "type": "bool"
        },
        {
          "internalType": "address",
          "name": "liquidityTokenAddress",
          "type": "address"
        },
        {
          "internalType": "uint256",
          "name": "liquidityTokenAmount",
          "type": "uint256"
        },
        {
          "internalType": "string",
          "name": "groupId",
          "type": "string"
        }
      ],
      "name": "createInsurance",
      "outputs": [
        {
          "internalType": "address",
          "name": "",
          "type": "address"
        }
      ],
      "stateMutability": "payable",
      "type": "function"
    },
    {
      "inputs": [
        {
          "internalType": "uint256",
          "name": "index",
          "type": "uint256"
        }
      ],
      "name": "getContract",
      "outputs": [
        {
          "components": [
            {
              "internalType": "address",
              "name": "contractAddress",
              "type": "address"
            },
            {
              "internalType": "uint256",
              "name": "judgingStartTime",
              "type": "uint256"
            },
            {
              "internalType": "uint256",
              "name": "judgingEndTime",
              "type": "uint256"
            }
          ],
          "internalType": "struct Factory.ContractInfo",
          "name": "",
          "type": "tuple"
        }
      ],
      "stateMutability": "view",
      "type": "function"
    },
    {
      "inputs": [],
      "name": "getContracts",
      "outputs": [
        {
          "components": [
            {
              "internalType": "address",
              "name": "contractAddress",
              "type": "address"
            },
            {
              "internalType": "uint256",
              "name": "judgingStartTime",
              "type": "uint256"
            },
            {
              "internalType": "uint256",
              "name": "judgingEndTime",
              "type": "uint256"
            }
          ],
          "internalType": "struct Factory.ContractInfo[]",
          "name": "",
          "type": "tuple[]"
        }
      ],
      "stateMutability": "view",
      "type": "function"
    },
    {
      "inputs": [],
      "name": "getContractsLength",
      "outputs": [
        {
          "internalType": "uint256",
          "name": "",
          "type": "uint256"
        }
      ],
      "stateMutability": "view",
      "type": "function"
    },
    {
      "inputs": [
        {
          "internalType": "address",
          "name": "contractAddress",
          "type": "address"
        }
      ],
      "name": "getRandomNumbers",
      "outputs": [
        {
          "internalType": "uint256",
          "name": "requestId",
          "type": "uint256"
        }
      ],
      "stateMutability": "payable",
      "type": "function"
    },
    {
      "inputs": [
        {
          "internalType": "bytes",
          "name": "performData",
          "type": "bytes"
        }
      ],
      "name": "performUpkeep",
      "outputs": [],
      "stateMutability": "nonpayable",
      "type": "function"
    },
    {
      "inputs": [
        {
          "internalType": "uint256",
          "name": "requestId",
          "type": "uint256"
        },
        {
          "internalType": "uint256[]",
          "name": "randomWords",
          "type": "uint256[]"
        }
      ],
      "name": "rawFulfillRandomWords",
      "outputs": [],
      "stateMutability": "nonpayable",
      "type": "function"
    }
  ],
  "transactionHash": "0xc3a72455122ad53a9e048e079beab6381b8c83720d8a8f6499dfc49edc113d70",
  "args": [
    "0xbd13f08b8352a3635218ab9418e340c60d6eb418",
    "119",
    "0x121a143066e0f2f08b620784af77cccb35c6242460b4a8ee251b4b416abaebd4",
    "500000",
    "0x7Fc29F9cFAD302505B7Ece08eB94bd2f209bb6A3"
  ],
  "numDeployments": 2,
  "solcInputHash": "c8c10eb05e4cbcd4b9c39f4e90eefd5e",
  "bytecode": "0x6101408060405234610126576001600160401b03601f61538b38819003918201601f19168401918383118584101761010b5780859260a0946040528339810103126101045761004d8261012c565b9060208301519081168114156100fc57604083015160608401519163ffffffff83168314156100f25761008560806100ab960161012c565b60808590526001600160a01b0390941660a05260e09190915260c0526101005261012052565b604051615249908161014282396080518161061c015260a05181610a54015260c051816109e1015260e051816109bb01526101005181610a17015261012051816108b70152f35b5050505050600080fd5b505050600080fd5b5050600080fd5b5050505050634e487b7160e01b600052604160045260246000fd5b50600080fd5b51906001600160a01b0382168214156101045756fe604060808152600436101562000016575b50600080fd5b600090813560e01c80631fe543e314620001d35780634585e33b14620001b357806368065289146200016e5780636e04ff0d146200013c5780636ebc8c86146200010e578063ba6731c014620000e3578063c3a2a93a14620000b55763fccc134f1462000084575062000010565b34620000b157620000ad91506200009b36620005aa565b60015490519081529081906020820190565b0390f35b5080fd5b5034620000b157620000ad9150620000cd36620005aa565b620000d762000d02565b905191829182620005c5565b50620000ad9150620000ff620000f93662000585565b620009ac565b90519081529081906020820190565b5034620000b157620000ad9150620001306200012a366200053e565b62000d63565b90519182918262000573565b5034620000b157620000ad915062000154366200033c565b50506200016062000bb8565b929091519283928362000523565b50620000ad91506200019a620001843662000418565b9b9a909a99919998929897939796949662000834565b90516001600160a01b0390911681529081906020820190565b5034620000b157620001d0620001c9366200033c565b9062000aeb565b51f35b5034620000b157620001d0620001e93662000291565b9062000611565b50634e487b7160e01b600052604160045260246000fd5b606081019081106001600160401b038211176200022357604052565b6200022d620001f0565b604052565b601f909101601f19168101906001600160401b038211908210176200022357604052565b60405190620002658262000207565b565b6020906001600160401b03811162000281575b60051b0190565b6200028b620001f0565b6200027a565b9060406003198301126200033557600435916024356001600160401b0381116200032c57816023820112156200032c57806004013591620002d28362000267565b92620002e2604051948562000232565b80845260209260248486019260051b8201019283116200032057602401905b82821062000310575050505090565b8135815290830190830162000301565b50505050505050600080fd5b50505050600080fd5b5050600080fd5b90602060031983011262000335576001600160401b0391600435908382116200032c57806023830112156200032c5781600401359384116200032c57602484830101116200038b576024019190565b505050600080fd5b81601f820112156200038b578035906001600160401b038211620003ef575b60405192620003cc601f8401601f19166020018562000232565b828452602083830101116200032c57816000926020809301838601378301015290565b620003f9620001f0565b620003b2565b61014435906001600160a01b0382168214156200033557565b6101a060031982011262000335576001600160401b03906004358281116200032c5781620004499160040162000393565b926024359260443592606435926084359260a4359260c4359260e43592610104359261012435801515811415620004bc579262000485620003ff565b92610164359261018435918211620004a857620004a59160040162000393565b90565b505050505050505050505050505050600080fd5b50505050505050505050505050600080fd5b91908251928382526000905b8482106200050a575092806020939411620004fc575b601f01601f1916010190565b6000838284010152620004f0565b90602090818082850101519082860101520190620004da565b604090620004a59392151581528160208201520190620004ce565b6020906003190112620000105760043590565b80516001600160a01b0316825260208082015190830152604090810151910152565b60608101929162000265919062000551565b602090600319011262000010576004356001600160a01b038116811415620003355790565b60009060031901126200001057565b60009103126200001057565b6020908160408183019282815285518094520193019160005b828110620005ed575050505090565b909192938260608262000604600194895162000551565b01950193929101620005de565b906001600160a01b037f0000000000000000000000000000000000000000000000000000000000000000811633811415620006cf575062000662906000938452836020526040842054169162000b8e565b51813b15620006c857604051631a9d787960e01b8152600481019190915291908290602490829084905af18015620006b8575b6200069d5750565b6200026590620006ae3d8262000232565b3d810190620005b9565b620006c2620006f2565b62000695565b5050809150fd5b92505050604491506040519063073e64fd60e21b82523360048301526024820152fd5b506040513d6000823e3d90fd5b50634e487b7160e01b600052601160045260246000fd5b8119811162000723570190565b6200072d620006ff565b0190565b50634e487b7160e01b600052603260045260246000fd5b60015481101562000769575b60016000526003602060002091020190600090565b6200077362000731565b62000754565b80546001600160a01b0319166001600160a01b03909216919091179055565b600260406001546001821b81101562000824575b600181018060015581101562000814575b600160005283516003919091027fb10e2d527612073b26eecdfd717e6a320cf44b4afac2b0732d9fcbe2b7fa0cf601939062000803906001600160a01b03168562000779565b602081015160018501550151910155565b6200081e62000731565b620007bd565b6200082e620001f0565b620007ac565b939a9298909499919b95978c97604051998a9961447097888c01988c8a1060018060401b038b11176200098c575b62000d968d396101c0808a5289016200087b91620004ce565b60208901999099526040880152606087018c9052608087018e905260a087018d905260c087015260e08601526101008501526001600160a01b037f00000000000000000000000000000000000000000000000000000000000000001661012085015215156101408401526001600160a01b0316610160830152610180820152808203906101a001526200090e91620004ce565b03906000f0938415936200093b62000949936200093b6200094194620004a5986200097c575b4262000716565b62000716565b918262000716565b6001600160a01b03909316926200095f62000256565b6001600160a01b0385168152916020830152604082015262000798565b62000986620006f2565b62000934565b62000996620001f0565b62000862565b9081602091031262000335575190565b6040516305d3b1d360e41b81527f000000000000000000000000000000000000000000000000000000000000000060048201527f00000000000000000000000000000000000000000000000000000000000000006001600160401b03166024820152600360448201527f000000000000000000000000000000000000000000000000000000000000000063ffffffff16606482015260016084820152919060208360a48160007f00000000000000000000000000000000000000000000000000000000000000006001600160a01b03165af192831562000adb575b60009362000ab1575b50620002659062000aab846000526000602052604060002090565b62000779565b6200026591935062000ad39062000ac93d8262000232565b3d8101906200099c565b929062000a90565b62000ae5620006f2565b62000a87565b90816040918101031262000335578035602062000b1a62000b0c8362000748565b50546001600160a01b031690565b9201351562000b6e57600262000b3260009262000748565b5001556001600160a01b0316803b156200033557600080916004604051809481936305bbfb2560e31b83525af18015620006b8576200069d5750565b906000600162000b8262000b8b9462000748565b500155620009ac565b50565b60209080511562000b9d570190565b6200072d62000731565b600190600019811462000723570190565b6060600091600060018054915b82811062000bd257505050565b8162000bde8262000748565b50015415158062000cb7575b8062000c9e575b62000c755762000c018162000748565b506002809101541515908162000c5c575b5062000c295762000c239062000ba7565b62000bc5565b604080516020810192909252600190820152909450919250620004a5905081606081015b03601f19810183528262000232565b905062000c698262000748565b50015442113862000c12565b604080516020810192909252600090820152909450919250620004a59050816060810162000c4d565b50600262000cac8262000748565b500154421062000bf1565b508162000cc48262000748565b500154421162000bea565b9060405162000cde8162000207565b82546001600160a01b03168152600183015460208201526002909201546040830152565b60019081549162000d138362000267565b9262000d23604051948562000232565b808452600082815260208082208187015b84841062000d4457505050505050565b600383879262000d548562000ccf565b81520192019301929062000d34565b62000d8e620004a59160006040805162000d7d8162000207565b828152826020820152015262000748565b5062000ccf56fe6103a0604052346200017d576200003262000019620002a3565b9c9b909b9a919a99929998939897949796959662000cb3565b604051613463908162000fcd8239608051818181610589015281816125a00152613103015260a05181818161096b015281816114c00152611abd015260c0518181816108870152611dc2015260e0518181816109a501528181611df80152818161213201526123840152610100518181816107b00152818161215d015281816123af0152612766015261012051818181610a120152818161242d015261281901526101405181818161039a01528181611a920152818161252801526127a3015261016051818181610496015261286f0152610180518161084e01526101a05181818161069f0152818161162d0152612c4201526101c051818181610725015281816115a201528181611b0b015281816127c50152612d7b01526101e051818181610765015281816115e101528181611bbb0152612df50152610200518181816108c10152611b850152f35b600080fd5b50634e487b7160e01b600052604160045260246000fd5b601f909101601f19168101906001600160401b03821190821017620001bd57604052565b620001c762000182565b604052565b9080601f830112156200026f578151906001600160401b0382116200025f575b6040519260209162000208601f8501601f191684018662000199565b838552828483010111620002555782906000905b838383106200023c575050116200023257505090565b6000918301015290565b819350828193920101518282880101520183916200021c565b5050505050600080fd5b6200026962000182565b620001ec565b505050600080fd5b51906001600160a01b0382168214156200028d57565b5050600080fd5b51908115158214156200028d57565b62004470908138038060405193620002bc828662000199565b84398201916101c0818403126200026f5780516001600160401b039290838111620002555784620002ef918401620001cc565b9160208101519460408201519460608301519460808401519460a08501519460c08101519460e0820151946101008301519462000330610120850162000277565b9462000340610140860162000294565b9462000350610160820162000277565b94610180820151946101a08301519081116200038357620003729201620001cc565b919d9c9b9a99989796959493929190565b5050505050505050505050505050505050600080fd5b15620003a157565b5060405162461bcd60e51b815260206004820152602e60248201527f496e737572616e63653a206d696e4d656d626572732073686f756c642062652060448201526d067726561746572207468616e20360941b6064820152608490fd5b156200040657565b5060405162461bcd60e51b815260206004820152602f60248201527f496e737572616e63653a207265717565737454696d652073686f756c6420626560448201526e02067726561746572207468616e203608c1b6064820152608490fd5b156200046c57565b5060405162461bcd60e51b815260206004820152602c60248201527f496e737572616e63653a2076616c69646974792073686f756c6420626520677260448201526b06561746572207468616e20360a41b6064820152608490fd5b15620004cf57565b5060405162461bcd60e51b815260206004820152603460248201527f496e737572616e63653a206a756467696e67537461727454696d652073686f7560448201527306c642062652067726561746572207468616e20360641b6064820152608490fd5b156200053a57565b5060405162461bcd60e51b815260206004820152602f60248201527f496e737572616e63653a206a756467696e6754696d652073686f756c6420626560448201526e02067726561746572207468616e203608c1b6064820152608490fd5b15620005a057565b5060405162461bcd60e51b815260206004820152603060248201526000805160206200443083398151915260448201526f0652067726561746572207468616e20360841b6064820152608490fd5b15620005f657565b5060405162461bcd60e51b815260206004820152604260248201526000805160206200443083398151915260448201527f65206c657373207468616e206f7220657175616c20746f206d696e4d656d6265606482015261727360f01b608482015260a490fd5b156200066457565b5060405162461bcd60e51b815260206004820152602a60248201527f496e737572616e63653a20616d6f756e742073686f756c6420626520677265616044820152690746572207468616e20360b41b6064820152608490fd5b15620006c557565b5060405162461bcd60e51b815260206004820152603b60248201526000805160206200445083398151915260448201527a065732073686f756c642062652067726561746572207468616e203602c1b6064820152608490fd5b156200072657565b5060405162461bcd60e51b815260206004820152604660248201526000805160206200445083398151915260448201527f65732073686f756c64206265206c657373207468616e206f7220657175616c206064820152650746f203130360d41b608482015260a490fd5b156200079857565b5060405162461bcd60e51b815260206004820152603360248201527f496e737572616e63653a2065786368616e6765466163746f72794164647265736044820152720732073686f756c64206e6f742062652030783606c1b6064820152608490fd5b156200080257565b5060405162461bcd60e51b815260206004820152603260248201527f496e737572616e63653a206c6971756964697479546f6b656e4164647265737360448201527102073686f756c64206e6f74206265203078360741b6064820152608490fd5b156200086b57565b5060405162461bcd60e51b815260206004820152603860248201527f496e737572616e63653a206c6971756964697479546f6b656e416d6f756e7420604482015277073686f756c642062652067726561746572207468616e20360441b6064820152608490fd5b90600182811c9216801562000906575b6020831014620008ee57565b5050634e487b7160e01b600052602260045260246000fd5b91607f1691620008e2565b90601f82116200091f575050565b60019160009083825260208220906020601f850160051c8301941062000962575b601f0160051c01915b828110620009575750505050565b818155830162000949565b909250829062000940565b601f81116200097a575050565b6000906002825260208220906020601f850160051c83019410620009bb575b601f0160051c01915b828110620009af57505050565b818155600101620009a2565b909250829062000999565b80519091906001600160401b03811162000ab8575b600190620009f581620009ef8454620008d2565b62000911565b602080601f831160011462000a3357508192939460009262000a27575b5050600019600383901b1c191690821b179055565b01519050388062000a12565b6001600052601f198316959091907fb10e2d527612073b26eecdfd717e6a320cf44b4afac2b0732d9fcbe2b7fa0cf6926000905b88821062000aa0575050838596971062000a86575b505050811b019055565b015160001960f88460031b161c1916905538808062000a7c565b80878596829496860151815501950193019062000a67565b62000ac262000182565b620009db565b80519091906001600160401b03811162000bbc575b62000af58162000aef600254620008d2565b6200096d565b602080601f831160011462000b34575081929360009262000b28575b50508160011b916000199060031b1c191617600255565b01519050388062000b11565b6002600052601f198316949091907f405787fa12a823e0f2b7631cc41b3ba8828b3321ca811111fa75cd3aa3bb5ace926000905b87821062000ba357505083600195961062000b89575b505050811b01600255565b015160001960f88460031b161c1916905538808062000b7e565b8060018596829496860151815501950193019062000b68565b62000bc662000182565b62000add565b8119811162000bd9570190565b505050634e487b7160e01b600052601160045260246000fd5b908160209103126200028d5762000c099062000277565b90565b506040513d6000823e3d90fd5b1562000c2157565b5060405162461bcd60e51b815260206004820152605d60248201527f496e737572616e63653a2065786368616e6765416464726573732073686f756c60448201527f64206e6f74206265203078302c20747279206372656174696e6720657863686160648201527f6e676520696e2065786368616e676520666163746f7279206669727374000000608482015260a490fd5b949a62000e369a62000e409d92949a62000e4f9f94999a62000e2c9b62000d37989f9a62000e1e9b89610300526103805261024052610280526102c05261022052610320526102a0526102e0526102605262000d0e62000f82565b62000d196001600755565b62000d246001600a55565b62000d2f6001600e55565b151562000399565b62000d44831515620003fe565b62000d5185151562000464565b62000d5e871515620004c7565b62000d6e61038051151562000532565b62000d7e61024051151562000598565b62000d9261030051610240511115620005ee565b62000da26102805115156200065c565b62000db26102c0511515620006bd565b62000dc460646102c05111156200071e565b610220516001600160a01b031661034081905262000de490151562000790565b61032051158061036052801562000f6c575b62000e0190620007fa565b61036051801562000f5f575b62000e189062000863565b620009c6565b610300516080524262000bcc565b8060a05262000bcc565b8060c05262000bcc565b8060e052610380519062000bcc565b61010052610240516101205261028051610140526102c05161016052610220516101805260006103205160001462000f5457506040516303795fb160e11b81526102a0516001600160a01b0316600482015262000ee590602081806024810103816000610340515af190811562000f44575b60009162000f21575b505b806101a0526103605190811562000f0d575b5062000c19565b610320516101c0526102a0516101e0526102e0516102005262000f0b6102605162000ac8565b565b6001600160a01b0316151590503862000ede565b62000f3d915062000f333d8262000199565b3d81019062000bf2565b3862000eca565b62000f4e62000c0c565b62000ec1565b62000ee59062000ecc565b506102e051151562000e0d565b506102a0516001600160a01b0316151562000df6565b60008054336001600160a01b031982168117835560405190926001600160a01b03909216917f8be0079c531659141344cd1fd0a4f28419497f9722a3daafe3b4186f6b6457e091a356fe6040608081526004361015610015575b50600080fd5b600090813560e01c8063071694fb14610ab85780630a4b516214610a865780630cac36b214610a6a57806313284cdd14610a38578063134fe304146109fe57806316daa23b146109e25780631a9d7879146109cb5780631e1e949914610991578063201095b714610957578063253ecfcf1461092557806326757b73146108fe5780632ddfd928146108e75780633b1e79fb146108ad5780633b7f7cfa146108735780633c1fad11146108365780633ccfd60b1461081f5780633e035c78146107ed5780633f952091146107d65780634340b2131461079c5780634c6ee3821461078a578063506ee1001461074d57806351016a4e146107115780635ee8906d146106eb57806365b21d14146106c4578063691dcad5146106875780636f80886c1461064a578063715018a6146106335780637248f5791461061757806379ee10b0146105ec5780637d4b1a5f146105c65780638170aff0146105af5780638618e9d3146105755780638c9a92a2146104ee5780638da5cb5b1461054d5780638f18030514610531578063a095f2b414610519578063b0118f4a146104ee578063b035d6e1146104bc578063b7e44ba414610482578063bfbdef7e1461045c578063c4677c0414610436578063c864b70e1461041e578063cf1dd2b4146103f7578063cfdd1ce3146103c5578063d321fe2914610386578063e12c2d911461035e578063e1aac42014610337578063e57384db14610309578063ed3ee1de146102dc578063f0e22d52146102c0578063f2fde38b146102a65763f8b2cb4f1461025e575061000f565b346102a25761029e915061028f61027436610aeb565b6001600160a01b031660009081526017602052604090205490565b90519081529081906020820190565b0390f35b5080fd5b50346102a2576102bd6102b836610aeb565b610f13565b51f35b50346102a25761029e91506102d436610b15565b61028f613127565b50346102a25761029e91506102f036610b15565b6102f86130f9565b905191829182901515815260200190565b50346102a25761029e915061031d36610b15565b60ff60035460081c16905191829182901515815260200190565b50346102a25761029e915061034b36610b15565b610353612fae565b905191829182610b7d565b50346102a25761029e915061037b61037536610ad5565b9061325e565b905191829182610e59565b5090346103c0575061039736610b15565b517f00000000000000000000000000000000000000000000000000000000000000008152602090f35b809150fd5b50346102a25761029e915061028f6103dc36610aeb565b6001600160a01b031660009081526009602052604090205490565b50346102a25761029e915061040b36610b15565b610413613388565b905191829182610d8e565b50346102a2576102bd61043036610e14565b9161212c565b50346102a25761029e915061044a36610b15565b60155490519081529081906020820190565b50346102a25761029e915061047036610b15565b60045490519081529081906020820190565b5090346103c0575061049336610b15565b517f00000000000000000000000000000000000000000000000000000000000000008152602090f35b50346102a25761029e915061028f6104d336610aeb565b6001600160a01b03166000908152600b602052604090205490565b50346102a25761029e915061050236610b15565b60ff60035416905191829182901515815260200190565b50346102a2576102bd61052b36610dd8565b90611dc0565b50346102a25761029e915061054536610b15565b61028f6130e7565b50346102a25761029e9161056036610b15565b5490519182916001600160a01b031682610bda565b5090346103c0575061058636610b15565b517f00000000000000000000000000000000000000000000000000000000000000008152602090f35b50346102a2576102bd6105c136610b91565b6118a4565b50346102a25761029e91506105da36610b15565b60055490519081529081906020820190565b50346102a25761029e915061060036610b15565b60ff60065416905191829182901515815260200190565b50346102a25761029e915061062b36610b15565b610413613311565b50346102a25761064236610b15565b6102bd610e7c565b50346102a25761029e915061067c61066136610b91565b6000908152600860205260409020546001600160a01b031690565b905191829182610bda565b5090346103c0575061069836610b15565b518061029e7f000000000000000000000000000000000000000000000000000000000000000082610bda565b50346102a25761029e91506106e06106db36610b91565b6131ef565b905191829182610d4d565b50346102a25761029e91506106ff36610b15565b60165490519081529081906020820190565b5090346103c0575061072236610b15565b517f000000000000000000000000000000000000000000000000000000000000000015158152602090f35b5090346103c0575061075e36610b15565b518061029e7f000000000000000000000000000000000000000000000000000000000000000082610bda565b506102bd61079736610d23565b611a89565b5090346103c057506107ad36610b15565b517f00000000000000000000000000000000000000000000000000000000000000008152602090f35b50346102a2576107e536610b15565b6102bd6114bb565b50346102a25761029e915061067c61080436610b91565b6000908152601260205260409020546001600160a01b031690565b50346102a25761082e36610b15565b6102bd612d65565b5090346103c0575061084736610b15565b518061029e7f000000000000000000000000000000000000000000000000000000000000000082610bda565b5090346103c0575061088436610b15565b517f00000000000000000000000000000000000000000000000000000000000000008152602090f35b5090346103c057506108be36610b15565b517f00000000000000000000000000000000000000000000000000000000000000008152602090f35b50346102a2576108f636610b15565b6102bd612761565b50346102a25761029e915061091a61091536610b91565b613139565b905191829182610ba3565b50346102a25761029e915061028f61093c36610aeb565b6001600160a01b03166000908152600f602052604090205490565b5090346103c0575061096836610b15565b517f00000000000000000000000000000000000000000000000000000000000000008152602090f35b5090346103c057506109a236610b15565b517f00000000000000000000000000000000000000000000000000000000000000008152602090f35b50346102a2576102bd6109dd36610b91565b612304565b50346102a25761029e91506109f636610b15565b61028f6131dd565b5090346103c05750610a0f36610b15565b517f00000000000000000000000000000000000000000000000000000000000000008152602090f35b50346102a25761029e915061028f610a4f36610aeb565b6001600160a01b031660009081526011602052604090205490565b50346102a25761029e9150610a7e36610b15565b610353612f16565b50346102a25761029e915061028f610a9d36610aeb565b6001600160a01b031660009081526014602052604090205490565b50346102a25761029e91506102f8610acf36610ad5565b90613198565b604090600319011261000f576004359060243590565b602090600319011261000f576004356001600160a01b038116811415610b0e5790565b5050600080fd5b600090600319011261000f57565b918091926000905b828210610b43575011610b3c575050565b6000910152565b91508060209183015181860152018291610b2b565b90602091610b7181518092818552858086019101610b23565b601f01601f1916010190565b906020610b8e928181520190610b58565b90565b602090600319011261000f5760043590565b6020815260018060a01b03825116602082015260606040610bd1602085015183838601526080850190610b58565b93015191015290565b6001600160a01b03909116815260200190565b50634e487b7160e01b600052604160045260246000fd5b606081019081106001600160401b03821117610c1f57604052565b610c27610bed565b604052565b608081019081106001600160401b03821117610c1f57604052565b604081019081106001600160401b03821117610c1f57604052565b601f909101601f19168101906001600160401b03821190821017610c1f57604052565b60405190610c9282610c04565b565b60405190610c9282610c2c565b60405190610c9282610c47565b81601f82011215610d1b578035906001600160401b038211610d0e575b60405192610ce3601f8401601f191660200185610c62565b82845260208383010111610d0557816000926020809301838601378301015290565b50505050600080fd5b610d16610bed565b610ccb565b505050600080fd5b6020600319820112610b0e57600435906001600160401b038211610d1b57610b8e91600401610cae565b6020815260018060a01b03825116602082015260806060610d7c602085015183604086015260a0850190610b58565b93604081015182850152015191015290565b60208082019080835283518092528060408094019401926000905b838210610db857505050505090565b845180518752830151868401529485019493820193600190910190610da9565b6040600319820112610b0e57600435906001600160401b038211610d1b57610e0291600401610cae565b9060243590565b801515141561000f57565b6060600319820112610b0e5760043591602435610e3081610e09565b91604435906001600160401b038211610e4f57610b8e91600401610cae565b5050505050600080fd5b60606020610b8e9381845280511515828501520151916040808201520190610b58565b610e84610eb9565b600080546001600160a01b0319811682556040516001600160a01b0390911690600080516020613400833981519152908390a3565b6000546001600160a01b0316331415610ece57565b50606460405162461bcd60e51b815260206004820152602060248201527f4f776e61626c653a2063616c6c6572206973206e6f7420746865206f776e65726044820152fd5b610f1b610eb9565b6001600160a01b03908116908115610f5a57600080546001600160a01b03198116841782556040519216916000805160206134008339815191529190a3565b505060405162461bcd60e51b815260206004820152602660248201527f4f776e61626c653a206e6577206f776e657220697320746865207a65726f206160448201526564647265737360d01b606482015260849150fd5b80546001600160a01b0319166001600160a01b03909216919091179055565b15610fd757565b5060405162461bcd60e51b815260206004820152602260248201527f416464696e67206d656d626572206973206e6f742076616c696420616e796d6f604482015261726560f01b6064820152608490fd5b6001600160a01b0316600090815260096020526040902090565b6001600160a01b03166000908152600b6020526040902090565b6001600160a01b03166000908152600f6020526040902090565b6001600160a01b0316600090815260116020526040902090565b6001600160a01b0316600090815260146020526040902090565b6001600160a01b0316600090815260176020526040902090565b156110cb57565b5060405162461bcd60e51b815260206004820152601060248201526f20b63932b0b23c90309036b2b6b132b960811b6044820152606490fd5b600052600c602052604060002090565b6000526008602052604060002090565b6000526010602052604060002090565b6000526012602052604060002090565b50634e487b7160e01b600052601160045260246000fd5b6001811061116b575b6000190190565b611173611144565b611164565b818110611183570390565b61118b611144565b0390565b1561119657565b5060405162461bcd60e51b8152602060048201526024808201527f4e6f7420616c6c206d656d6265727320616363657074656420746865207265716044820152631d595cdd60e21b6064820152608490fd5b60405190602082016001600160401b0381118382101761120c575b60405260008252565b611214610bed565b611203565b50634e487b7160e01b600052600060045260246000fd5b90600182811c92168015611262575b602083101461124a57565b5050634e487b7160e01b600052602260045260246000fd5b91607f169161123f565b90601f811161127a57505050565b600091825260208220906020601f850160051c830194106112b6575b601f0160051c01915b8281106112ab57505050565b81815560010161129f565b9092508290611296565b81519091906112d8906001600160a01b031683610fb1565b6020808201518051909291600185810192916001600160401b0383116113c8575b61130d836113078654611230565b8661126c565b80601f84116001146113525750918080926040969594600298600094611347575b50501b916000199060031b1c19161790555b0151910155565b01519250388061132e565b91939495601f19841661136a87600052602060002090565b936000905b8282106113b15750509160029795939185604098969410611398575b505050811b019055611340565b015160001960f88460031b161c1916905538808061138b565b80888697829497870151815501960194019061136f565b6113d0610bed565b6112f9565b60019060001981146113e5570190565b6113ed611144565b0190565b90816020910312610b0e575190565b506040513d6000823e3d90fd5b806000190460021181151516611424575b60011b90565b61142c611144565b61141e565b7f028f5c28f5c28f5c28f5c28f5c28f5c28f5c28f5c28f5c28f5c28f5c28f5c28f8111600116611462575b60640290565b61146a611144565b61145c565b8060001904821181151516611482570290565b61148a611144565b0290565b50634e487b7160e01b600052601260045260246000fd5b81156114af570490565b6114b761148e565b0490565b6114e67f00000000000000000000000000000000000000000000000000000000000000004210610fd0565b6114f96114f233611028565b54156110c4565b611523600261151061150a33611042565b54611104565b015461151d60075461115b565b1461118f565b61152c33611042565b54611535610c85565b600081526115626115446111e8565b916020928382015261155d604094600086840152611104565b6112c0565b600061156d33611042565b556115823361157d600754611114565b610fb1565b6115a061159b6007548061159533611028565b556113d5565b600755565b7f00000000000000000000000000000000000000000000000000000000000000006115c9575050565b81516370a0823160e01b8082526001600160a01b03937f0000000000000000000000000000000000000000000000000000000000000000851692908482806116143060048301610bda565b0381875afa918215611798575b600092611781575b50847f0000000000000000000000000000000000000000000000000000000000000000938251958691825281806116638860048301610bda565b03915afa938415611774575b60009461175d575b504790846116da57516328e32c8560e11b81526004810192909252909485935083919082602481015b0393165af180156116cd575b6116b35750565b6116ca906116c13d82610c62565b3d8101906113f1565b50565b6116d5611400565b6116ac565b8331946116e7868561146f565b6116f1848361146f565b116117255750516328e32c8560e11b815260048101929092529094859350602492849291165af180156116cd576116b35750565b61173d9192506117386116a0968561146f565b6114a5565b90519586809581946328e32c8560e11b8352600483019190602083019252565b61176d9194506116c13d82610c62565b9238611677565b61177c611400565b61166f565b6117919192506116c13d82610c62565b9038611629565b6117a0611400565b611621565b156117ac57565b5060405162461bcd60e51b815260206004820152600c60248201526b2737ba10309036b2b6b132b960a11b6044820152606490fd5b6001600160a01b039091168152602081019190915260400190565b6020611815918160405193828580945193849201610b23565b8101600d81520301902090565b602061183b918160405193828580945193849201610b23565b8101601381520301902090565b1561184f57565b5060405162461bcd60e51b815260206004820152601060248201526f105b1c9958591e481858d8d95c1d195960821b6044820152606490fd5b60019060011981116113e5570190565b811981116113e5570190565b6118b86118b033611028565b5415156117a5565b6001600160a01b036118c982611104565b5416156119605761195160029161194c61193f60405161191d611917611910836118f78833602084016117e1565b039361190b601f1995868101835282610c62565b6117fc565b5460ff1690565b15611848565b61190b60405191826119338733602084016117e1565b03908101835282610c62565b805460ff19166001179055565b611104565b0161195c8154611888565b9055565b505060405162461bcd60e51b815260206004820152601660248201527514995c5d595cdd08191bd95cc81b9bdd08195e1a5cdd60521b6044820152606490fd5b156119a757565b5060405162461bcd60e51b8152602060048201526019602482015278105b5bdd5b9d081cd95b9d081a5cdb89dd0818dbdc9c9958dd603a1b6044820152606490fd5b156119f057565b5060405162461bcd60e51b81526020600482015260156024820152744d656d62657220616c72656164792065786973747360581b6044820152606490fd5b15611a3557565b5060405162461bcd60e51b81526020600482015260166024820152755265717565737420616c72656164792065786973747360501b6044820152606490fd5b90816020910312610b0e5751610b8e81610e09565b611b5290611ab87f000000000000000000000000000000000000000000000000000000000000000034146119a0565b611ae37f00000000000000000000000000000000000000000000000000000000000000004210610fd0565b611af6611aef33611028565b54156119e9565b611b09611b0233611042565b5415611a2e565b7f0000000000000000000000000000000000000000000000000000000000000000611b6a575b611b37610c85565b3381529060208201526000604082015261155d600a54611104565b610c92611b65600a548061159533611042565b600a55565b6040516323b872dd60e01b81523360048201523060248201527f0000000000000000000000000000000000000000000000000000000000000000604482015260208160648160006001600160a01b037f0000000000000000000000000000000000000000000000000000000000000000165af18015611c0d575b611bef575b50611b2f565b611c0690611bfd3d82610c62565b3d810190611a74565b5038611be9565b611c15611400565b611be4565b15611c2157565b5060405162461bcd60e51b8152602060048201526017602482015276129d5919da5b99c8185b1c9958591e481cdd185c9d1959604a1b6044820152606490fd5b15611c6857565b5060405162461bcd60e51b8152602060048201526018602482015277496e737572616e636520616c72656164792065786973747360401b6044820152606490fd5b8151909190611cc1906001600160a01b031683610fb1565b6020808201518051909291600185810192916001600160401b038311611db3575b611cf0836113078654611230565b80601f8411600114611d3e5750918080926060969594600398600094611d33575b50501b9160001990871b1c19161790555b604081015160028501550151910155565b015192503880611d11565b91939495601f198416611d5687600052602060002090565b936000905b828210611d9c5750509160039795939185606098969410611d84575b505050811b019055611d22565b015160001983891b60f8161c19169055388080611d77565b808886978294978701518155019601940190611d5b565b611dbb610bed565b611ce2565b7f0000000000000000000000000000000000000000000000000000000000000000421115611e9657611e8391611e76611e7e92611e1e7f00000000000000000000000000000000000000000000000000000000000000004210611c1a565b611e2a6118b033611028565b611e3d611e363361105c565b5415611c61565b611e71600e5480611e4d3361105c565b55611e56610c94565b33815292602084015284604084015260006060840152611124565b611ca9565b600454611898565b600455565b610c92611e91600e546113d5565b600e55565b505060405162461bcd60e51b815260206004820152601d60248201527f436f6e7472616374206973206e6f742076616c696420616e796d6f7265000000604482015260649150fd5b15611ee557565b5060405162461bcd60e51b8152602060048201526017602482015276129d5919da5b99c81b9bdd081cdd185c9d1959081e595d604a1b6044820152606490fd5b15611f2c57565b5060405162461bcd60e51b8152602060048201526015602482015274129d5919da5b99c8185b1c9958591e48195b991959605a1b6044820152606490fd5b15611f7157565b5060405162461bcd60e51b815260206004820152600b60248201526a4e6f742061206a7564676560a81b6044820152606490fd5b15611fac57565b5060405162461bcd60e51b8152602060048201526018602482015277125b9cdd5c985b98d948191bd95cc81b9bdd08195e1a5cdd60421b6044820152606490fd5b15611ff457565b5060405162461bcd60e51b8152602060048201526013602482015272526561736f6e2075726920697320656d70747960681b6044820152606490fd5b61204982511515829060ff801983541691151516179055565b602091820151805160019283019390916001600160401b03831161211f575b61207c836120768754611230565b8761126c565b81601f84116001146120b557509282939183926000946120aa575b50501b916000199060031b1c1916179055565b015192503880612097565b919083601f1981166120cc88600052602060002090565b946000905b8883831061210557505050106120ec575b505050811b019055565b015160001960f88460031b161c191690553880806120e2565b8587015188559096019594850194879350908101906120d1565b612127610bed565b612068565b916121587f00000000000000000000000000000000000000000000000000000000000000004211611ede565b6121837f00000000000000000000000000000000000000000000000000000000000000004210611f25565b61219761218f33611076565b541515611f6a565b6121c36001600160a01b036121bb6121ae86611124565b546001600160a01b031690565b161515611fa5565b604051906121f5611910836121dc8733602084016117e1565b03936121f0601f1995868101835282610c62565b611822565b15806122fa575b80156122c8575b61228b5761223e61224392841561227a575b61221d610ca1565b85151581529260208401526121f060405191826119338933602084016117e1565b612030565b61225c575b5061225233611090565b61195c8154611888565b612267600391611124565b016122728154611888565b905538612248565b61228683511515611fed565b612215565b505060405162461bcd60e51b815260206004820152600f60248201526e105b1c9958591e481d5c19185d1959608a1b604482015260649350915050fd5b5060016122f26119106040516121f0816122e68a33602084016117e1565b03878101835282610c62565b151514612203565b50805115156121fc565b610c9290612310610eb9565b61237f565b1561231c57565b5060405162461bcd60e51b8152602060048201526017602482015276129d5919d95cc8185b1c9958591e481cd95b1958dd1959604a1b6044820152606490fd5b8115612366570690565b61236e61148e565b0690565b801561116b576000190190565b6123aa7f00000000000000000000000000000000000000000000000000000000000000004211611ede565b6123d57f00000000000000000000000000000000000000000000000000000000000000004210611f25565b60035460ff16156123e581612315565b80612592575b61250157612401600160ff196003541617600355565b61241561010061ff00196003541617600355565b61242b600791612425835461115b565b9061235c565b7f00000000000000000000000000000000000000000000000000000000000000009160015b8381111561245e5750505050565b6124736121ae61246e8386611898565b611114565b9261247d84611076565b546124c857906124be6124a961249f8361249a866124c397611898565b611898565b612425865461115b565b94826124b482611076565b5561157d83611134565b6113d5565b612450565b61249a93506124f16124ec6124fb926124e36124c395612372565b96818892611898565b611888565b612425845461115b565b926113d5565b50612514600160ff196003541617600355565b61252461ff001960035416600355565b60017f000000000000000000000000000000000000000000000000000000000000000081805b61255357505050565b60075481101561258d57806125756125706121ae61258794611114565b6110aa565b612580848254611898565b90556113d5565b8261254a565b505050565b5061259e60075461115b565b7f0000000000000000000000000000000000000000000000000000000000000000116123eb565b156125cc57565b5060405162461bcd60e51b8152602060048201526015602482015274129d5919da5b99c81b9bdd08195b991959081e595d605a1b6044820152606490fd5b1561261157565b5060405162461bcd60e51b8152602060048201526012602482015271105b1c9958591e48199d5b1b199a5b1b195960721b6044820152606490fd5b9190826040910312610b0e576020825192015190565b50634e487b7160e01b600052603260045260246000fd5b601554811015612699575b601560005260206000209060011b0190600090565b6126a1612662565b612684565b6016548110156126c6575b601660005260206000209060011b0190600090565b6126ce612662565b6126b1565b610c92906126f6601554600160401b811015612724575b60018101601555612679565b61270b57906020600191805184550151910155565b612713611219565b906020600191805184550151910155565b61272c610bed565b6126ea565b610c92906126f6601654600160401b811015612754575b600181016016556126a6565b61275c610bed565b612748565b61278c7f000000000000000000000000000000000000000000000000000000000000000042116125c5565b6127a161279b60065460ff1690565b1561260a565b7f0000000000000000000000000000000000000000000000000000000000000000907f0000000000000000000000000000000000000000000000000000000000000000612c28575b6127fb600160ff196006541617600655565b600391825460ff811680918192612c19575b50612c135715612bbc577f000000000000000000000000000000000000000000000000000000000000000060015b81811115612b6f5750601592835415612b2e576007946128ca8654946128c46128bd6128988361289361286d8b61115b565b7f000000000000000000000000000000000000000000000000000000000000000061146f565b61146f565b926128b76128b18b54956128ab87611431565b906114a5565b9961115b565b9061146f565b918761146f565b90611178565b9460005b815481101561291357808660016128e761290e94612679565b5001556129036125706121ae6128fc84612679565b5054611134565b612580888254611898565b6128ce565b509194600193841c945090925b600e548110156129845780858561293961294594611124565b01541161294a576113d5565b612920565b61296a612965600261295b84611124565b0154600554611898565b600555565b6124be612975610ca1565b82815260006020820152612731565b509250929050601692835415612acd57600580549093906000828210612abc5750906129af91611178565b9460005b60005b8654811015612a2357806129f260026129db6129d4612a1e956126a6565b5054611124565b01546128c46129ea8c8361146f565b8a54906114a5565b8060016129fe846126a6565b500155612580612a166125706121ae6129d4866126a6565b918254611898565b6129b6565b509295509250925080612a3557505050565b612a43906128ab835461115b565b9060005b8354811015612a765780612a666125706121ae6128fc612a7195612679565b612580858254611898565b612a47565b50915060015b825481101561258d5780612a9d612a986121ae612aa894611114565b611076565b5415612aad576113d5565b612a7c565b6125756125706121ae83611114565b969190612ac891611178565b6129b3565b92509290612adf906128ab835461115b565b9060005b8354811015612b075780612a666125706121ae6128fc612b0295612679565b612ae3565b50915060015b825481101561258d5780612a9d612a986121ae612b2994611114565b612b0d565b935090612b3b9250611898565b612b4b6007916128ab835461115b565b60015b825481101561258d5780612a9d612a986121ae612b6a94611114565b612b4e565b80612b87612b826121ae612b9d94611134565b611090565b54612b93600e5461115b565b14612ba2576113d5565b61283b565b6124be612bad610ca1565b828152600060208201526126d3565b909150612bd1600160ff196003541617600355565b612be161ff001960035416600355565b60019081805b612bf057505050565b60075481101561258d57806125756125706121ae612c0d94611114565b82612be7565b50509050565b60ff915060081c16153861280d565b604080516370a0823160e01b8152919250600091612cb1907f00000000000000000000000000000000000000000000000000000000000000006001600160a01b03169060208180612c7c3060048301610bda565b0381855afa908115612d1e575b8591612d09575b508351948580948193639c8f9f2360e01b8352600483019190602083019252565b03925af18015612cfc575b612cdf575b50612cd9612cce4761140d565b6128ab60075461115b565b906127e9565b612cf690612ced3d82610c62565b3d81019061264c565b50612cc1565b612d04611400565b612cbc565b612d1891506116c13d82610c62565b38612c90565b612d26611400565b612c89565b15612d3257565b5060405162461bcd60e51b815260206004820152600a6024820152694e6f2062616c616e636560b01b6044820152606490fd5b612d79612d71336110aa565b541515612d2b565b7f0000000000000000000000000000000000000000000000000000000000000000612ddc57612da7336110aa565b5460008080809381612db8336110aa565b55818115612dd3575b3390f115612dcb57565b610c92611400565b506108fc612dc1565b6040516370a0823160e01b8152600090602090612ea3907f00000000000000000000000000000000000000000000000000000000000000006001600160a01b03169047848280612e2f3060048301610bda565b0381865afa918215612f09575b8692612ee6575b50858080612e698194611738612e62612e5b336110aa565b5460011c90565b978861146f565b9481612e74336110aa565b55818115612edd575b3390f115612ed0575b60405194858094819363a9059cbb60e01b835233600484016117e1565b03925af18015612ec3575b612eb55750565b6116ca90611bfd3d82610c62565b612ecb611400565b612eae565b612ed8611400565b612e86565b506108fc612e7d565b868080939450612e69612efe82946116c13d82610c62565b959450505050612e43565b612f11611400565b612e3c565b604051906000826001918254612f2b81611230565b80845290848116908115612f915750600114612f4f575b50610c9292500383610c62565b9280915060005260209081600020936000915b818310612f79575050610c92935082010138612f42565b85548884018501529485019487945091830191612f62565b94505050505060ff19166020830152610c92826040810138612f42565b6040519060008260025491612fc283611230565b808352600193808516908115612f915750600114612fe75750610c9292500383610c62565b600260009081527f405787fa12a823e0f2b7631cc41b3ba8828b3321ca811111fa75cd3aa3bb5ace94602093509091905b81831061302f575050610c92935082010138612f42565b85548884018501529485019487945091830191613018565b906040519182600082549261305b84611230565b9081845260019485811690816000146130c85750600114613085575b5050610c9292500383610c62565b9093915060005260209081600020936000915b8183106130b0575050610c9293508201013880613077565b85548884018501529485019487945091830191613098565b9550505050505060ff19166020830152610c9282604081013880613077565b6007546001811061116b576000190190565b6131016130e7565b7f0000000000000000000000000000000000000000000000000000000000000000111590565b600a546001811061116b576000190190565b60006040805161314881610c04565b828152606060208201520152600052600c602052604060002060026040519161317083610c04565b80546001600160a01b0316835261318960018201613047565b60208401520154604082015290565b60ff916131d891600052600860205261190b60018060a01b03604060002054166131ca604051938492602084016117e1565b03601f198101835282610c62565b541690565b600e546001811061116b576000190190565b600060606040516131ff81610c2c565b82815281602082015282604082015201526000526010602052604060002060036040519161322c83610c2c565b80546001600160a01b0316835261324560018201613047565b6020840152600281015460408401520154606082015290565b906132a4916060602060405161327381610c47565b60008152015260005260126020526121f060018060a01b03604060002054166131ca604051938492602084016117e1565b6132c56001604051926132b684610c47565b60ff8154161515845201613047565b602082015290565b6020906001600160401b0381116132e6575b60051b0190565b6132ee610bed565b6132df565b9060405161330081610c47565b602060018294805484520154910152565b6015549061331e826132cd565b9161332c6040519384610c62565b8083526015600090815260207f55f448fdea98c4d29eb340757ef0a66cd03dbb9538908a6a81d96026b71ec4758186015b84841061336b575050505050565b60028360019261337a856132f3565b81520192019301929061335d565b60165490613395826132cd565b916133a36040519384610c62565b8083526016600090815260207fd833147d7dc355ba459fc788f669e58cfaf9dc25ddcd0702e87d69c7b51242898186015b8484106133e2575050505050565b6002836001926133f1856132f3565b8152019201930192906133d456fe8be0079c531659141344cd1fd0a4f28419497f9722a3daafe3b4186f6b6457e0a364697066735822122027d2c4f54785470b3fed65571aa25df0abe33ed9d28415f2f92382b46d52640b6c6578706572696d656e74616cf564736f6c634300080c0041496e737572616e63653a206a75646765734c656e6774682073686f756c642062496e737572616e63653a2070657263656e74446976696465496e746f4a756467a3646970667358221220da4b835f765febfeac7be9c8d5419fd74a5e4ade592e2206f59791fe8f7cf5856c6578706572696d656e74616cf564736f6c634300080c0041",
  "devdoc": {
    "kind": "dev",
    "methods": {
      "performUpkeep(bytes)": {
        "details": "The input to this method should not be trusted, and the caller of the method should not even be restricted to any single registry. Anyone should be able call it, and the input should be validated, there is no guarantee that the data passed in is the performData returned from checkUpkeep. This could happen due to malicious keepers, racing keepers, or simply a state change while the performUpkeep transaction is waiting for confirmation. Always validate the data passed in.",
        "params": {
          "performData": "is the data which was passed back from the checkData simulation. If it is encoded, it can easily be decoded into other types by calling `abi.decode`. This data should not be trusted, and should be validated against the contract's current state."
        }
      }
    },
    "version": 1
  },
  "userdoc": {
    "kind": "user",
    "methods": {
      "performUpkeep(bytes)": {
        "notice": "method that is actually executed by the keepers, via the registry. The data returned by the checkUpkeep simulation will be passed into this method to actually be executed."
      }
    },
    "version": 1
  },
  "storageLayout": {
    "storage": [
      {
        "astId": 462,
        "contract": "contracts/Factory.sol:Factory",
        "label": "s_requestIdToContractAddress",
        "offset": 0,
        "slot": "0",
        "type": "t_mapping(t_uint256,t_address)"
      },
      {
        "astId": 466,
        "contract": "contracts/Factory.sol:Factory",
        "label": "s_contractInfos",
        "offset": 0,
        "slot": "1",
        "type": "t_array(t_struct(ContractInfo)441_storage)dyn_storage"
      }
    ],
    "types": {
      "t_address": {
        "encoding": "inplace",
        "label": "address",
        "numberOfBytes": "20"
      },
      "t_array(t_struct(ContractInfo)441_storage)dyn_storage": {
        "base": "t_struct(ContractInfo)441_storage",
        "encoding": "dynamic_array",
        "label": "struct Factory.ContractInfo[]",
        "numberOfBytes": "32"
      },
      "t_mapping(t_uint256,t_address)": {
        "encoding": "mapping",
        "key": "t_uint256",
        "label": "mapping(uint256 => address)",
        "numberOfBytes": "32",
        "value": "t_address"
      },
      "t_struct(ContractInfo)441_storage": {
        "encoding": "inplace",
        "label": "struct Factory.ContractInfo",
        "members": [
          {
            "astId": 436,
            "contract": "contracts/Factory.sol:Factory",
            "label": "contractAddress",
            "offset": 0,
            "slot": "0",
            "type": "t_address"
          },
          {
            "astId": 438,
            "contract": "contracts/Factory.sol:Factory",
            "label": "judgingStartTime",
            "offset": 0,
            "slot": "1",
            "type": "t_uint256"
          },
          {
            "astId": 440,
            "contract": "contracts/Factory.sol:Factory",
            "label": "judgingEndTime",
            "offset": 0,
            "slot": "2",
            "type": "t_uint256"
          }
        ],
        "numberOfBytes": "96"
      },
      "t_uint256": {
        "encoding": "inplace",
        "label": "uint256",
        "numberOfBytes": "32"
      }
    }
  }
}